:020000040800F2
:1000000000280020C50F0008550F00085B0F0008EE
:10001000610F0008670F00086D0F00080000000066
:10002000000000000000000000000000730F000846
:100030007F0F0008000000008B0F0008970F0008DA
:100040000D1000080D1000080D1000080D1000081C
:100050000D1000080D1000080D1000080D1000080C
:100060000D1000080D1000080D1000080D100008FC
:100070000D1000080D1000080D1000080D100008EC
:100080000D1000080D1000080D1000080D100008DC
:100090000D1000080D1000080D1000080D100008CC
:1000A0000D1000080D1000080D1000080D100008BC
:1000B000A50F00080D100008000000000D1000083A
:1000C0000D10000800000000000000000D100008E6
:1000D000000000000D1000080D10000800000000D6
:1000E0000D1000080D1000080D10000800000000A1
:1000F0000000000000000000000000000000000000
:0C01000000000000000000005FF808F1A3
:10010C0010B5054C237833B9044B13B10448AFF345
:10011C0000800123237010BD24000020000000008B
:10012C002826000808B5034B1BB103490348AFF35D
:10013C00008008BD000000002800002028260008D0
:10014C0080B500AF01227F21024801F045FA00BFC3
:10015C0080BD00BF000C014080B582B000AF78605C
:10016C00FFF7EEFF7B68092B52D801A252F823F05F
:10017C00A5010008B1010008BD010008C901000873
:10018C00D5010008E1010008ED010008F9010008A3
:10019C00050200081102000800223F211F4801F04F
:1001AC001BFA36E0002206211C4801F015FA30E05B
:1001BC0000225B21194801F00FFA2AE000224F219E
:1001CC00164801F009FA24E000226621134801F0D8
:1001DC0003FA1EE000226D21104801F0FDF918E031
:1001EC0000227D210D4801F0F7F912E000220721D1
:1001FC000A4801F0F1F90CE000227F21074801F0D8
:10020C00EBF906E000226F21044801F0E5F900E06B
:10021C0000BF00BF0837BD4680BD00BF000C0140C9
:10022C0080B582B000AF78607B68032B50D801A2F8
:10023C0052F823F0510200087302000895020008DE
:10024C00B9020008254B1B681846FFF785FF0022F2
:10025C004021234801F0C0F901224FF4607120487D
:10026C0001F0BAF935E01D4B5B681846FFF774FFD7
:10027C00002280211A4801F0AFF901224FF450718D
:10028C00174801F0A9F924E0144B9B681846FFF7B6
:10029C0063FF00224FF48071114801F09DF9012297
:1002AC004FF430710E4801F097F912E00B4BDB68FC
:1002BC001846FFF751FF00224FF40071084801F077
:1002CC008BF901224FF4E071054801F085F900E04B
:1002DC0000BF00BF0837BD4680BD00BF0000002036
:1002EC000008014080B582B000AF786001224FF663
:1002FC000C418B4801F070F97B68072B00F20C84E1
:10030C0001A252F823F000BF3503000831040008A5
:10031C003905000837060008410700083F080008A7
:10032C0049090008470A0008002204217C4801F012
:10033C0053F97C4B1B7803F00103002B0CBF0123FA
:10034C000023DBB21A464FF48071774801F044F970
:10035C00744B5B7803F00103002B0CBF01230023CB
:10036C00DBB21A464FF400716F4801F035F96D4B52
:10037C009B7803F00103002B0CBF01230023DBB29D
:10038C001A464FF48061684801F026F9654BDB781A
:10039C0003F00103002B0CBF01230023DBB21A4630
:1003AC004FF40061604801F017F95E4B1B7903F0C4
:1003BC000103002B0CBF01230023DBB21A464FF4C0
:1003CC008051594801F008F9564B5B7903F0010351
:1003DC00002B0CBF01230023DBB21A464FF4005153
:1003EC00514801F0F9F84F4B9B7903F00103002BB6
:1003FC000CBF01230023DBB21A464FF480414A485C
:10040C0001F0EAF8474BDB7903F00103002B0CBF3A
:10041C0001230023DBB21A464FF40041424801F09D
:10042C00DBF87AE3002208213D4801F0D5F83D4B7A
:10043C001B7803F00203002B0CBF01230023DBB25B
:10044C001A464FF48071384801F0C6F8354B5B788A
:10045C0003F00203002B0CBF01230023DBB21A466E
:10046C004FF40071304801F0B7F82E4B9B7803F035
:10047C000203002B0CBF01230023DBB21A464FF4FE
:10048C008061294801F0A8F8264BDB7803F00203C1
:10049C00002B0CBF01230023DBB21A464FF4006182
:1004AC00214801F099F81F4B1B7903F00203002B34
:1004BC000CBF01230023DBB21A464FF480511A48BB
:1004CC0001F08AF8174B5B7903F00203002B0CBF89
:1004DC0001230023DBB21A464FF40051124801F0FD
:1004EC007BF8104B9B7903F00203002B0CBF01230C
:1004FC000023DBB21A464FF480410B4801F06CF834
:10050C00084BDB7903F00203002B0CBF0123002303
:10051C00DBB21A464FF40041034801F05DF8FCE2EF
:10052C000008014010000020000C014000224FF494
:10053C0080617D4801F050F87C4B1B7803F004037C
:10054C00002B0CBF01230023DBB21A464FF4807141
:10055C00774801F041F8754B5B7803F00403002BEE
:10056C000CBF01230023DBB21A464FF40071704814
:10057C0001F032F86D4B9B7803F00403002B0CBF99
:10058C0001230023DBB21A464FF48061684801F066
:10059C0023F8664BDB7803F00403002B0CBF01231C
:1005AC000023DBB21A464FF40061614801F014F8E5
:1005BC005E4B1B7903F00403002B0CBF01230023BB
:1005CC00DBB21A464FF48051594801F005F8574BED
:1005DC005B7903F00403002B0CBF01230023DBB277
:1005EC001A464FF40051524800F0F6FF4F4B9B79DE
:1005FC0003F00403002B0CBF01230023DBB21A46CB
:10060C004FF480414A4800F0E7FF484BDB7903F098
:10061C000403002B0CBF01230023DBB21A464FF45A
:10062C000041434800F0D8FF77E200224FF400610C
:10063C003D4800F0D1FF3D4B1B7803F00803002B25
:10064C000CBF01230023DBB21A464FF480713848EB
:10065C0000F0C2FF354B5B7803F00803002B0CBF96
:10066C0001230023DBB21A464FF40071304800F02E
:10067C00B3FF2E4B9B7803F00803002B0CBF012318
:10068C000023DBB21A464FF48061294800F0A4FF26
:10069C00264BDB7803F00803002B0CBF012300234F
:1006AC00DBB21A464FF40061214800F095FF1F4B56
:1006BC001B7903F00803002B0CBF01230023DBB2D2
:1006CC001A464FF480511A4800F086FF174B5B799D
:1006DC0003F00803002B0CBF01230023DBB21A46E6
:1006EC004FF40051124800F077FF104B9B7903F048
:1006FC000803002B0CBF01230023DBB21A464FF476
:10070C0080410B4800F068FF084BDB7903F00803CD
:10071C00002B0CBF01230023DBB21A464FF400411F
:10072C00034800F059FFF8E10008014010000020D8
:10073C00000C014000224FF480517D4800F04CFF2A
:10074C007C4B1B7803F01003002B0CBF0123002300
:10075C00DBB21A464FF48071774800F03DFF754BC1
:10076C005B7803F01003002B0CBF01230023DBB2DA
:10077C001A464FF40071704800F02EFF6D4B9B78B9
:10078C0003F01003002B0CBF01230023DBB21A462D
:10079C004FF48061684800F01FFF664BDB7803F074
:1007AC001003002B0CBF01230023DBB21A464FF4BD
:1007BC000061614800F010FF5E4B1B7903F01003E1
:1007CC00002B0CBF01230023DBB21A464FF48051DF
:1007DC00594800F001FF574B5B7903F01003002BD5
:1007EC000CBF01230023DBB21A464FF400515248D0
:1007FC0000F0F2FE4F4B9B7903F01003002B0CBF63
:10080C0001230023DBB21A464FF480414A4800F022
:10081C00E3FE484BDB7903F01003002B0CBF0123E4
:10082C000023DBB21A464FF40041434800F0D4FEDB
:10083C0073E100224FF400513D4800F0CDFE3D4BDA
:10084C001B7803F02003002B0CBF01230023DBB229
:10085C001A464FF48071384800F0BEFE354B5B7879
:10086C0003F02003002B0CBF01230023DBB21A463C
:10087C004FF40071304800F0AFFE2E4B9B7803F024
:10088C002003002B0CBF01230023DBB21A464FF4CC
:10089C008061294800F0A0FE264BDB7803F0200392
:1008AC00002B0CBF01230023DBB21A464FF400616E
:1008BC00214800F091FE1F4B1B7903F02003002B05
:1008CC000CBF01230023DBB21A464FF480511A48A7
:1008DC0000F082FE174B5B7903F02003002B0CBF5A
:1008EC0001230023DBB21A464FF40051124800F0EA
:1008FC0073FE104B9B7903F02003002B0CBF0123DC
:10090C000023DBB21A464FF480410B4800F064FE22
:10091C00084BDB7903F02003002B0CBF01230023D1
:10092C00DBB21A464FF40041034800F055FEF4E0E8
:10093C000008014010000020000C014000224FF480
:10094C008041784800F048FE774B1B7803F0400359
:10095C00002B0CBF01230023DBB21A464FF480712D
:10096C00724800F039FE704B5B7803F04003002BAB
:10097C000CBF01230023DBB21A464FF400716B4805
:10098C0000F02AFE684B9B7803F04003002B0CBF51
:10099C0001230023DBB21A464FF48061634800F058
:1009AC001BFE614BDB7803F04003002B0CBF0123D3
:1009BC000023DBB21A464FF400615C4800F00CFED9
:1009CC00594B1B7903F04003002B0CBF0123002370
:1009DC00DBB21A464FF48051544800F0FDFD524BE7
:1009EC005B7903F04003002B0CBF01230023DBB227
:1009FC001A464FF400514D4800F0EEFD4A4B9B79DE
:100A0C0003F04003002B0CBF01230023DBB21A467A
:100A1C004FF48041454800F0DFFD434BDB7903F098
:100A2C004003002B0CBF01230023DBB21A464FF40A
:100A3C0000413E4800F0D0FD6FE000224FF4004131
:100A4C00384800F0C9FD384B1B785BB2DB43DBB296
:100A5C00DB09DBB21A464FF48071344800F0BCFD60
:100A6C00314B5B785BB2DB43DBB2DB09DBB21A46A2
:100A7C004FF400712D4800F0AFFD2B4B9B785BB20F
:100A8C00DB43DBB2DB09DBB21A464FF4806127484B
:100A9C0000F0A2FD244BDB785BB2DB43DBB2DB095D
:100AAC00DBB21A464FF40061204800F095FD1E4B56
:100ABC001B795BB2DB43DBB2DB09DBB21A464FF4CA
:100ACC0080511A4800F088FD174B5B795BB2DB4311
:100ADC00DBB2DB09DBB21A464FF40051134800F0CD
:100AEC007BFD114B9B795BB2DB43DBB2DB09DBB2E9
:100AFC001A464FF480410D4800F06EFD0A4BDB792D
:100B0C005BB2DB43DBB2DB09DBB21A464FF40041CC
:100B1C00064800F061FD00E000BF00BF0837BD468D
:100B2C0080BD00BF0008014010000020000C0140F7
:100B3C0080B500AF00F066FA00F060F800F0E6F85F
:100B4C0000F098F8294801F0A5F96421002000F084
:100B5C0043F93221012000F03FF90121022000F07D
:100B6C003BF9002000F050F90346002B0BD0642118
:100B7C00002000F031F920211D4800F045FD102126
:100B8C001B4800F041FD012000F03EF90346002B0C
:100B9C000BD03221012000F01FF9164B1B685A1C98
:100BAC0014490A601846FFF73BFB022000F02CF9B1
:100BBC000346002B0BD00121022000F00DF90E4B47
:100BCC001B685A1C0C490A601846FFF78BFB094B33
:100BDC001B68032B02DD074B00221A60064B1B68B7
:100BEC00072BBEDD044B00221A60BAE74800002038
:100BFC0000080140400000204400002080B590B067
:100C0C0000AF07F1180328220021184601F0FEFC62
:100C1C003B1D00221A605A609A60DA601A61022346
:100C2C00BB610123BB621023FB6200237B6307F1D2
:100C3C001803184600F002FD0346002B01D000F00B
:100C4C00C5F80F237B600023BB600023FB600023EF
:100C5C003B6100237B613B1D0021184600F06EFFB9
:100C6C000346002B01D000F0B1F800BF4037BD4661
:100C7C0080BD000080B586B000AF07F108030022EC
:100C8C001A605A609A60DA603B4600221A605A6019
:100C9C001D4B4FF080421A601B4B41F63F725A605D
:100CAC00194B00229A60184B0922DA60164B00226D
:100CBC001A61154B00229A61134801F09BF8034608
:100CCC00002B01D000F082F84FF48053BB6007F189
:100CDC00080319460C4801F031FA0346002B01D0E9
:100CEC0000F074F800233B6000237B603B46194600
:100CFC00054801F0FDFB0346002B01D000F066F81F
:100D0C0000BF1837BD4680BD4800002080B586B0B6
:100D1C0000AF07F1080300221A605A609A60DA608B
:100D2C00224B9B69214A43F0040393611F4B9B693F
:100D3C0003F004037B607B681C4B9B691B4A43F0EC
:100D4C0008039361194B9B6903F008033B603B68F4
:100D5C0000224FF6FC71164800F03EFC00224FF6C4
:100D6C007F71144800F038FC4FF6FC73BB60012314
:100D7C00FB6000233B6102237B6107F108031946EA
:100D8C000B4800F0AFFA4FF67F73BB600123FB609A
:100D9C0000233B6102237B6107F1080319460548D8
:100DAC0000F0A0FA00BF1837BD4680BD001002400D
:100DBC0000080140000C014080B582B000AF7860A3
:100DCC0000F03CF800BF0837BD4680BD80B400AFD2
:100DDC0072B600BFFEE7000080B483B000AF78604D
:100DEC00396007497B683A6841F82320054A7B68DB
:100DFC00002142F8231000BF0C37BD4680BC704761
:100E0C0090000020B800002080B483B000AF786060
:100E1C00094A7B6852F82330012B06D1064A7B68BD
:100E2C00002142F82310012300E0002318460C3760
:100E3C00BD4680BC704700BFB800002080B483B0B2
:100E4C0000AF00237B601CE0124A7B6852F8233011
:100E5C00002B13DD0F4A7B6852F823305A1E0D49C4
:100E6C007B6841F823200B4A7B6852F82330002B17
:100E7C0004D1094A7B68012142F823107B680133B5
:100E8C007B607B68092BDFDD00BF00BF0C37BD46E4
:100E9C0080BC704790000020B800002080B485B062
:100EAC0000AF154B9B69144A43F001039361124B3D
:100EBC009B6903F00103BB60BB680F4BDB690E4AF7
:100ECC0043F08053D3610C4BDB6903F080537B60A0
:100EDC007B680A4B5B68FB60FB6823F0E063FB609C
:100EEC00FB6843F08063FB60044AFB68536000BFFF
:100EFC001437BD4680BC7047001002400000014012
:100F0C0080B584B000AF78607B681B68B3F1804F0C
:100F1C0013D10C4BDB690B4A43F00103D361094B32
:100F2C00DB6903F00103FB60FB68002200211C203D
:100F3C0000F0A1F91C2000F0BAF900BF1037BD4633
:100F4C0080BD00BF0010024080B400AFFEE780B44B
:100F5C0000AFFEE780B400AFFEE780B400AFFEE761
:100F6C0080B400AFFEE780B400AF00BFBD4680BCCC
:100F7C00704780B400AF00BFBD4680BC704780B4E2
:100F8C0000AF00BFBD4680BC704780B500AF00F01D
:100F9C007FF800BF80BD000080B500AF024800F0B4
:100FAC00C5FF00BF80BD00BF4800002080B400AF6B
:100FBC0000BFBD4680BC7047FFF7F8FF0B480C49DB
:100FCC000C4A002302E0D458C4500433C4188C4299
:100FDC00F9D3094A094C002301E013600432A24200
:100FEC00FBD301F0EFFAFFF7A3FD704700000020E0
:100FFC00240000206C26000824000020E4000020BF
:10100C00FEE7000080B500AF084B1B68074A43F0B1
:10101C0010031360032000F023F90F2000F008F8F0
:10102C00FFF73CFF0023184680BD00BF00200240A4
:10103C0080B582B000AF7860124B1A68124B1B78E7
:10104C0019464FF47A73B3FBF1F3B2FBF3F3184682
:10105C0000F03BF90346002B01D001230EE07B6826
:10106C000F2B0AD8002279684FF0FF3000F003F9FB
:10107C00064A7B681360002300E0012318460837FA
:10108C00BD4680BD18000020200000201C00002060
:10109C0080B400AF054B1B781A46054B1B681344F4
:1010AC00034A136000BFBD4680BC7047200000207F
:1010BC00E000002080B400AF024B1B681846BD4610
:1010CC0080BC7047E000002080B485B000AF786031
:1010DC007B6803F00703FB600C4BDB68BB60BA68F2
:1010EC004FF6FF031340BB60FB681A02BB68134347
:1010FC0043F0BF6343F40033BB60044ABB68D36066
:10110C0000BF1437BD4680BC704700BF00ED00E047
:10111C0080B400AF044BDB681B0A03F007031846CE
:10112C00BD4680BC704700BF00ED00E080B483B0CA
:10113C0000AF0346FB7197F90730002B0BDBFB79F3
:10114C0003F01F02064997F907305B09012000FAEA
:10115C0002F241F8232000BF0C37BD4680BC70471B
:10116C0000E100E080B483B000AF03463960FB714E
:10117C0097F90730002B0ADB3B68DAB20C4997F978
:10118C0007301201D2B20B4483F800230AE03B680B
:10119C00DAB20849FB7903F00F03043B1201D2B217
:1011AC000B441A7600BF0C37BD4680BC704700BF9D
:1011BC0000E100E000ED00E080B489B000AFF86021
:1011CC00B9607A60FB6803F00703FB61FB69C3F14C
:1011DC000703042B28BF0423BB61FB690433062BD4
:1011EC0002D9FB69033B00E000237B614FF0FF3227
:1011FC00BB6902FA03F3DA43BB681A407B699A4075
:10120C004FF0FF317B6901FA03F3D9437B680B4044
:10121C00134318462437BD4680BC704780B582B056
:10122C0000AF78607B68013BB3F1807F01D3012371
:10123C000FE00A4A7B68013B53600F214FF0FF30EF
:10124C00FFF790FF054B00229A60044B07221A60AF
:10125C00002318460837BD4680BD00BF10E000E0F3
:10126C0080B582B000AF78607868FFF72DFF00BFC3
:10127C000837BD4680BD80B586B000AF0346B96067
:10128C007A60FB7300237B61FFF742FF78617A6819
:10129C00B9687869FFF790FF024697F90F3011464D
:1012AC001846FFF75FFF00BF1837BD4680BD80B5FD
:1012BC0082B000AF0346FB7197F907301846FFF771
:1012CC0035FF00BF0837BD4680BD80B582B000AF8A
:1012DC0078607868FFF7A2FF034618460837BD46CA
:1012EC0080BD000080B48BB000AF78603960002303
:1012FC007B6200233B6248E101227B6A02FA03F322
:10130C00FB613B681B68FA691340BB61BA69FB69F6
:10131C009A4240F037813B685B68A34A93425ED0A7
:10132C00A14A934275D8A14A934258D09F4A9342FE
:10133C006FD89F4A934252D09D4A934269D89D4A96
:10134C0093424CD09B4A934263D89B4A934246D0DB
:10135C00994A93425DD8122B2AD8122B59D801A244
:10136C0052F823F0EB130008C5130008D71300083C
:10137C00191400081F1400081F1400081F1400087B
:10138C001F1400081F1400081F1400081F14000865
:10139C001F1400081F1400081F1400081F14000855
:1013AC001F1400081F140008CD130008E1130008D7
:1013BC00824A934213D02CE03B68DB683B6229E005
:1013CC003B68DB6804333B6224E03B68DB68083332
:1013DC003B621FE03B68DB680C333B621AE03B6806
:1013EC009B68002B02D104233B6213E03B689B6893
:1013FC00012B05D108233B627B68FA691A6109E06D
:10140C0008233B627B68FA695A6103E000233B6264
:10141C0000E000BFBB69FF2B01D87B6801E07B6853
:10142C0004337B61BB69FF2B02D87B6A9B0002E013
:10143C007B6A083B9B003B617B691A680F213B6907
:10144C0001FA03F3DB431A40396A3B6901FA03F3EF
:10145C001A437B691A603B685B6803F08053002B6E
:10146C0000F09080564B9B69554A43F00103936101
:10147C00534B9B6903F00103BB60BB68514A7B6A09
:10148C009B08023352F82330FB607B6A03F00303A2
:10149C009B000F2202FA03F3DB43FA681340FB6054
:1014AC007B68494A93420DD07B68484A934207D0E7
:1014BC007B68474A934201D1022304E0032302E0F4
:1014CC00012300E000237A6A02F0030292009340A9
:1014DC00FA681343FB603B497B6A9B080233FA684A
:1014EC0041F823203B685B6803F48013002B06D083
:1014FC00384B9A683749BB6913438B6006E0354B10
:10150C009A68BB69DB43334913408B603B685B686B
:10151C0003F40013002B06D02E4BDA682D49BB695F
:10152C001343CB6006E02B4BDA68BB69DB432949DC
:10153C001340CB603B685B6803F40033002B06D090
:10154C00244B5A682349BB6913434B6006E0214B7B
:10155C005A68BB69DB431F4913404B603B685B68AF
:10156C0003F48033002B06D01A4B1A681949BB6957
:10157C0013430B6006E0174B1A68BB69DB43154934
:10158C0013400B607B6A01337B623B681A687B6A91
:10159C0022FA03F3002B7FF4AFAE00BF00BF2C3751
:1015AC00BD4680BC704700BF0000321000003110F7
:1015BC000000221000002110000012100000111079
:1015CC00001002400000014000080140000C0140E6
:1015DC00001001400004014080B483B000AF78607B
:1015EC000B467B8013467B707B78002B03D07A886C
:1015FC007B681A6103E07B881A047B681A6100BF60
:10160C000C37BD4680BC704780B485B000AF7860A5
:10161C000B467B807B68DB68FB607A88FB68134039
:10162C001A04FB68D9437B880B401A437B681A6108
:10163C0000BF1437BD4680BC7047000080B586B033
:10164C0000AF78607B68002B01D101236CE27B68D2
:10165C001B6803F00103002B00F08780924B5B6842
:10166C0003F00C03042B0CD08F4B5B6803F00C03C2
:10167C00082B12D18C4B5B6803F48033B3F5803F9D
:10168C000BD1894B1B6803F40033002B6CD07B68A7
:10169C005B68002B68D1012346E27B685B68B3F57D
:1016AC00803F06D1804B1B687F4A43F48033136024
:1016BC002EE07B685B68002B0CD17B4B1B687A4A55
:1016CC0023F480331360784B1B68774A23F4802310
:1016DC0013601DE07B685B68B3F5A02F0CD1724BD7
:1016EC001B68714A43F4802313606F4B1B686E4A6E
:1016FC0043F4803313600BE06B4B1B686A4A23F492
:10170C0080331360684B1B68674A23F48023136093
:10171C007B685B68002B13D0FFF7CCFC386108E0CA
:10172C00FFF7C8FC02463B69D31A642B01D903238B
:10173C00FAE15D4B1B6803F40033002BF0D014E08E
:10174C00FFF7B8FC386108E0FFF7B4FC02463B69D0
:10175C00D31A642B01D90323E6E1534B1B6803F422
:10176C000033002BF0D100E000BF7B681B6803F056
:10177C000203002B63D04C4B5B6803F00C03002B73
:10178C000BD0494B5B6803F00C03082B1CD1464B68
:10179C005B6803F48033002B16D1434B1B6803F0BA
:1017AC000203002B05D07B681B69012B01D00123A0
:1017BC00BAE13D4B1B6823F0F8027B685B69DB00E8
:1017CC00394913430B603AE07B681B69002B20D02E
:1017DC00364B01221A60FFF76DFC386108E0FFF709
:1017EC0069FC02463B69D31A022B01D903239BE106
:1017FC002D4B1B6803F00203002BF0D02A4B1B6807
:10180C0023F0F8027B685B69DB00274913430B600C
:10181C0015E0264B00221A60FFF74CFC386108E0FB
:10182C00FFF748FC02463B69D31A022B01D903236C
:10183C007AE11D4B1B6803F00203002BF0D17B688F
:10184C001B6803F00803002B3AD07B689B69002BC4
:10185C0019D0174B01221A60FFF72CFC386108E0F5
:10186C00FFF728FC02463B69D31A022B01D903234C
:10187C005AE10D4B5B6A03F00203002BF0D0012000
:10188C0000F09AFA1CE00A4B00221A60FFF712FCD7
:10189C0038610FE0FFF70EFC02463B69D31A022BAE
:1018AC0008D9032340E100BF00100240000042426F
:1018BC00800442429E4B5B6A03F00203002BE9D189
:1018CC007B681B6803F00403002B00F0A680002348
:1018DC00FB75974BDB6903F08053002B0DD1944BB8
:1018EC00DB69934A43F08053D361914BDB6903F07E
:1018FC008053BB60BB680123FB758E4B1B6803F4E4
:10190C008073002B18D18B4B1B688A4A43F480736D
:10191C001360FFF7CFFB386108E0FFF7CBFB024603
:10192C003B69D31A642B01D90323FDE0814B1B685F
:10193C0003F48073002BF0D07B68DB68012B06D19D
:10194C007B4B1B6A7A4A43F0010313622DE07B68E0
:10195C00DB68002B0CD1764B1B6A754A23F0010314
:10196C001362734B1B6A724A23F0040313621CE06C
:10197C007B68DB68052B0CD16D4B1B6A6C4A43F002
:10198C00040313626A4B1B6A694A43F00103136236
:10199C000BE0674B1B6A664A23F001031362644B2E
:1019AC001B6A634A23F0040313627B68DB68002B19
:1019BC0015D0FFF77FFB38610AE0FFF77BFB02468F
:1019CC003B69D31A41F28832934201D90323ABE02D
:1019DC00574B1B6A03F00203002BEED014E0FFF709
:1019EC0069FB38610AE0FFF765FB02463B69D31AD5
:1019FC0041F28832934201D9032395E04C4B1B6A88
:101A0C0003F00203002BEED1FB7D012B05D1484BDB
:101A1C00DB69474A23F08053D3617B68DB69002B79
:101A2C0000F08180424B5B6803F00C03082B61D003
:101A3C007B68DB69022B46D13F4B00221A60FFF713
:101A4C0039FB386108E0FFF735FB02463B69D31AD6
:101A5C00022B01D9032367E0354B1B6803F000739D
:101A6C00002BF0D17B681B6AB3F5803F08D1304B5B
:101A7C005B6823F400327B689B682D4913434B60F1
:101A8C002B4B5B6823F474127B68196A7B685B6A66
:101A9C000B43274913434B60274B01221A60FFF776
:101AAC0009FB386108E0FFF705FB02463B69D31AD6
:101ABC00022B01D9032337E01D4B1B6803F0007385
:101ACC00002BF0D02FE01C4B00221A60FFF7F2FA2B
:101ADC00386108E0FFF7EEFA02463B69D31A022B95
:101AEC0001D9032320E0124B1B6803F00073002B79
:101AFC00F0D118E07B68DB69012B01D1012313E0E5
:101B0C000B4B5B68FB60FB6803F480327B681B6AE1
:101B1C009A4206D1FB6803F470127B685B6A9A42A6
:101B2C0001D0012300E0002318461837BD4680BDC4
:101B3C0000100240007000406000424280B584B04A
:101B4C0000AF786039607B68002B01D10123D0E0B5
:101B5C006A4B1B6803F007033A689A4210D9674B2B
:101B6C001B6823F0070265493B6813430B60634B0A
:101B7C001B6803F007033A689A4201D00123B8E0CE
:101B8C007B681B6803F00203002B20D07B681B686A
:101B9C0003F00403002B05D0594B5B68584A43F4FF
:101BAC00E06353607B681B6803F00803002B05D0CF
:101BBC00534B5B68524A43F460535360504B5B6821
:101BCC0023F0F0027B689B684D4913434B607B68A4
:101BDC001B6803F00103002B40D07B685B68012B72
:101BEC0007D1474B1B6803F40033002B15D101239D
:101BFC007FE07B685B68022B07D1414B1B6803F0CD
:101C0C000073002B09D1012373E03D4B1B6803F0DB
:101C1C000203002B01D101236BE0394B5B6823F0ED
:101C2C0003027B685B68364913434B60FFF742FA4B
:101C3C00F8600AE0FFF73EFA0246FB68D31A41F25D
:101C4C008832934201D9032353E02D4B5B6803F098
:101C5C000C027B685B689B009A42EBD1274B1B689C
:101C6C0003F007033A689A4210D2244B1B6823F006
:101C7C00070222493B6813430B60204B1B6803F09F
:101C8C0007033A689A4201D0012332E07B681B6853
:101C9C0003F00403002B08D0194B5B6823F4E062BB
:101CAC007B68DB68164913434B607B681B6803F049
:101CBC000803002B09D0124B5B6823F460527B683D
:101CCC001B69DB000E4913434B6000F021F8024600
:101CDC000B4B5B681B0903F00F030A49CB5C22FA20
:101CEC0003F3094A1360094B1B681846FFF7A0F968
:101CFC00002318461037BD4680BD00BF00200240AF
:101D0C000010024040260008180000201C00002093
:101D1C0080B487B000AF0023FB600023BB600023BE
:101D2C007B6100237B6000233B611E4B5B68FB6087
:101D3C00FB6803F00C03042B02D0082B03D027E024
:101D4C00194B3B6127E0FB689B0C03F00F03174A10
:101D5C00D35C7B60FB6803F48033002B10D0114BF9
:101D6C005B685B0C03F00103114AD35CBB607B68BE
:101D7C000D4A02FB03F2BB68B2FBF3F37B6104E098
:101D8C007B680C4A02FB03F37B617B693B6102E0DD
:101D9C00054B3B6100BF3B6918461C37BD4680BCF8
:101DAC00704700BF0010024000127A005026000855
:101DBC006026000800093D0080B485B000AF786053
:101DCC000A4B1B680A4AA2FB03235B0A7A6802FBD4
:101DDC0003F3FB6000BFFB685A1EFA60002BF9D1BD
:101DEC0000BF00BF1437BD4680BC704718000020F0
:101DFC00D34D621080B582B000AF78607B68002B49
:101E0C0001D1012341E07B6893F83D30DBB2002B1C
:101E1C0006D17B68002283F83C207868FFF770F8C5
:101E2C007B68022283F83D207B681A687B68043348
:101E3C001946104600F06EFA7B68012283F84620A2
:101E4C007B68012283F83E207B68012283F83F20C7
:101E5C007B68012283F840207B68012283F84120B3
:101E6C007B68012283F842207B68012283F843209F
:101E7C007B68012283F844207B68012283F845208B
:101E8C007B68012283F83D20002318460837BD46A5
:101E9C0080BD000080B485B000AF78607B6893F89B
:101EAC003D30DBB2012B01D0012335E07B680222EF
:101EBC0083F83D207B681B68DA687B681B6842F0FE
:101ECC000102DA607B681B68164A934209D07B6872
:101EDC001B68B3F1804F04D07B681B68124A934295
:101EEC0011D17B681B689B6803F00703FB60FB68E0
:101EFC00062B10D07B681B681A687B681B6842F045
:101F0C0001021A6007E07B681B681A687B681B6813
:101F1C0042F001021A60002318461437BD4680BCFB
:101F2C00704700BF002C01400004004080B582B017
:101F3C0000AF78607B681B681B6903F00203022BFF
:101F4C0022D17B681B68DB6803F00203022B1BD1D8
:101F5C007B681B686FF002021A617B6801221A779A
:101F6C007B681B689B6903F00303002B03D0786824
:101F7C0000F0B4F905E0786800F0A7F9786800F093
:101F8C00B6F97B6800221A777B681B681B6903F023
:101F9C000403042B22D17B681B68DB6803F0040369
:101FAC00042B1BD17B681B686FF004021A617B68E1
:101FBC0002221A777B681B689B6903F44073002B21
:101FCC0003D0786800F08AF905E0786800F07DF9B4
:101FDC00786800F08CF97B6800221A777B681B68A4
:101FEC001B6903F00803082B22D17B681B68DB6894
:101FFC0003F00803082B1BD17B681B686FF00802E9
:10200C001A617B6804221A777B681B68DB6903F012
:10201C000303002B03D0786800F060F905E07868C2
:10202C0000F053F9786800F062F97B6800221A77A7
:10203C007B681B681B6903F01003102B22D17B6893
:10204C001B68DB6803F01003102B1BD17B681B682B
:10205C006FF010021A617B6808221A777B681B6884
:10206C00DB6903F44073002B03D0786800F036F979
:10207C0005E0786800F029F9786800F038F97B6899
:10208C0000221A777B681B681B6903F00103012B84
:10209C000ED17B681B68DB6803F00103012B07D1B1
:1020AC007B681B686FF001021A617868FEF784FE8A
:1020BC007B681B681B6903F08003802B0ED17B6847
:1020CC001B68DB6803F08003802B07D17B681B68DF
:1020DC006FF080021A61786800F06BFA7B681B68FD
:1020EC001B6903F04003402B0ED17B681B68DB6837
:1020FC0003F04003402B07D17B681B686FF0400254
:10210C001A61786800F0FCF87B681B681B6903F0A7
:10211C002003202B0ED17B681B68DB6803F02003A7
:10212C00202B07D17B681B686FF020021A6178683E
:10213C0000F036FA00BF0837BD4680BD80B584B0CC
:10214C0000AF786039600023FB737B6893F83C30F8
:10215C00012B01D10223B4E07B68012283F83C20DF
:10216C007B68022283F83D207B681B689B68BB6000
:10217C00BB6823F07703BB60BB6823F47F43BB6071
:10218C007B681B68BA689A603B681B68B3F5005F94
:10219C003ED0B3F5005F00F28780B3F5805F00F0AE
:1021AC008680B3F5805F7FD8702B1AD0702B7BD8CC
:1021BC00602B50D0602B77D8502B3CD0502B73D841
:1021CC00402B58D0402B6FD8302B64D0302B6BD891
:1021DC00202B60D0202B67D8002B5CD0102B5AD032
:1021EC0062E07B6818683B6899683B685A683B6892
:1021FC00DB6800F05EF97B681B689B68BB60BB68A2
:10220C0043F07703BB607B681B68BA689A604FE049
:10221C007B6818683B6899683B685A683B68DB6860
:10222C0000F047F97B681B689A687B681B6842F46E
:10223C0080429A603CE07B6818683B6859683B6850
:10224C00DB681A4600F0BEF87B681B685021184604
:10225C0000F015F92CE07B6818683B6859683B68FE
:10226C00DB681A4600F0DCF87B681B6860211846B6
:10227C0000F005F91CE07B6818683B6859683B68FE
:10228C00DB681A4600F09EF87B681B6840211846F4
:10229C0000F0F5F80CE07B681A683B681B6819467F
:1022AC00104600F0ECF803E00123FB7300E000BFE4
:1022BC007B68012283F83D207B68002283F83C2058
:1022CC00FB7B18461037BD4680BD80B483B000AF91
:1022DC00786000BF0C37BD4680BC704780B483B0BB
:1022EC0000AF786000BF0C37BD4680BC704780B42F
:1022FC0083B000AF786000BF0C37BD4680BC704720
:10230C0080B483B000AF786000BF0C37BD4680BC92
:10231C007047000080B485B000AF786039607B688E
:10232C001B68FB607B68254A934207D07B68B3F13E
:10233C00804F03D07B68224A934208D1FB6823F07C
:10234C007003FB603B685B68FA681343FB607B6857
:10235C001A4A934207D07B68B3F1804F03D07B6855
:10236C00174A934208D1FB6823F44073FB603B6827
:10237C00DB68FA681343FB60FB6823F080023B6860
:10238C005B691343FB607B68FA681A603B689A6868
:10239C007B68DA623B681A687B689A627B68074ADA
:1023AC00934203D13B681A697B681A637B680122EC
:1023BC005A6100BF1437BD4680BC7047002C0140E9
:1023CC000004004080B487B000AFF860B9607A6058
:1023DC00FB681B6A7B61FB681B6A23F00102FB68CC
:1023EC001A62FB689B693B613B6923F0F0033B611C
:1023FC007B681B013A6913433B617B6923F00A0339
:10240C007B617A69BB6813437B61FB683A699A61AB
:10241C00FB687A691A6200BF1C37BD4680BC7047E6
:10242C0080B487B000AFF860B9607A60FB681B6A53
:10243C007B61FB681B6A23F01002FB681A62FB6865
:10244C009B693B613B6923F470433B617B681B03D5
:10245C003A6913433B617B6923F0A0037B61BB6842
:10246C001B017A6913437B61FB683A699A61FB68CB
:10247C007A691A6200BF1C37BD4680BC704780B4B5
:10248C0085B000AF786039607B689B68FB60FB6847
:10249C0023F07003FB603A68FB68134343F00703B7
:1024AC00FB607B68FA689A6000BF1437BD4680BC3D
:1024BC00704780B487B000AFF860B9607A603B6059
:1024CC00FB689B687B617B6923F47F437B613B6882
:1024DC001A027B681A43BB6813437A6913437B6106
:1024EC00FB687A699A6000BF1C37BD4680BC704798
:1024FC0080B485B000AF786039607B6893F83C306D
:10250C00012B01D1022341E07B68012283F83C209E
:10251C007B68022283F83D207B681B685B68FB604C
:10252C007B681B689B68BB60FB6823F07003FB60D7
:10253C003B681B68FA681343FB607B681B68FA688E
:10254C005A607B681B68144A934209D07B681B68ED
:10255C00B3F1804F04D07B681B68104A93420CD1B6
:10256C00BB6823F08003BB603B685B68BA681343AD
:10257C00BB607B681B68BA689A607B68012283F831
:10258C003D207B68002283F83C200023184614373A
:10259C00BD4680BC704700BF002C014000040040C9
:1025AC0080B483B000AF786000BF0C37BD4680BCF0
:1025BC00704780B483B000AF786000BF0C37BD4665
:1025CC0080BC704770B500260C4D0D4C641BA410DC
:1025DC00A64209D100F022F800260A4D0A4C641BD1
:1025EC00A410A64205D170BD55F8043B984701369E
:1025FC00EEE755F8043B98470136F2E764260008ED
:10260C006426000864260008682600080346024475
:10261C00934200D1704703F8011BF9E7F8B500BFEE
:10262C00F8BC08BC9E467047F8B500BFF8BC08BCA7
:04263C009E467047FF
:102640000000000000000000010203040607080962
:1026500002030405060708090A0B0C0D0E0F1010E3
:042660000102000073
:042664003101000838
:042668000D01000858
:10266C000100000002000000030000000400000054
:10267C00182442427E4242420024F4001000000022
:04268C000100000049
:0400000508000FC51B
:00000001FF
